{
    "contractName": "TakTokenICO",
    "abi": [
        {
            "inputs": [
                {
                    "internalType": "address payable",
                    "name": "_deposit",
                    "type": "address"
                }
            ],
            "stateMutability": "nonpayable",
            "type": "constructor"
        },
        {
            "anonymous": false,
            "inputs": [
                {
                    "indexed": true,
                    "internalType": "address",
                    "name": "tokenOwner",
                    "type": "address"
                },
                {
                    "indexed": true,
                    "internalType": "address",
                    "name": "spender",
                    "type": "address"
                },
                {
                    "indexed": false,
                    "internalType": "uint256",
                    "name": "tokens",
                    "type": "uint256"
                }
            ],
            "name": "Approval",
            "type": "event"
        },
        {
            "anonymous": false,
            "inputs": [
                {
                    "indexed": false,
                    "internalType": "address",
                    "name": "investor",
                    "type": "address"
                },
                {
                    "indexed": false,
                    "internalType": "uint256",
                    "name": "value",
                    "type": "uint256"
                },
                {
                    "indexed": false,
                    "internalType": "uint256",
                    "name": "tokens",
                    "type": "uint256"
                }
            ],
            "name": "Invest",
            "type": "event"
        },
        {
            "anonymous": false,
            "inputs": [
                {
                    "indexed": true,
                    "internalType": "address",
                    "name": "from",
                    "type": "address"
                },
                {
                    "indexed": true,
                    "internalType": "address",
                    "name": "to",
                    "type": "address"
                },
                {
                    "indexed": false,
                    "internalType": "uint256",
                    "name": "tokens",
                    "type": "uint256"
                }
            ],
            "name": "Transfer",
            "type": "event"
        },
        {
            "inputs": [],
            "name": "admin",
            "outputs": [
                {
                    "internalType": "address",
                    "name": "",
                    "type": "address"
                }
            ],
            "stateMutability": "view",
            "type": "function",
            "constant": true
        },
        {
            "inputs": [
                {
                    "internalType": "address",
                    "name": "tokenOwner",
                    "type": "address"
                },
                {
                    "internalType": "address",
                    "name": "spender",
                    "type": "address"
                }
            ],
            "name": "allowance",
            "outputs": [
                {
                    "internalType": "uint256",
                    "name": "",
                    "type": "uint256"
                }
            ],
            "stateMutability": "view",
            "type": "function",
            "constant": true
        },
        {
            "inputs": [
                {
                    "internalType": "address",
                    "name": "spender",
                    "type": "address"
                },
                {
                    "internalType": "uint256",
                    "name": "tokens",
                    "type": "uint256"
                }
            ],
            "name": "approve",
            "outputs": [
                {
                    "internalType": "bool",
                    "name": "success",
                    "type": "bool"
                }
            ],
            "stateMutability": "nonpayable",
            "type": "function"
        },
        {
            "inputs": [
                {
                    "internalType": "address",
                    "name": "tokenOwner",
                    "type": "address"
                }
            ],
            "name": "balanceOf",
            "outputs": [
                {
                    "internalType": "uint256",
                    "name": "balance",
                    "type": "uint256"
                }
            ],
            "stateMutability": "view",
            "type": "function",
            "constant": true
        },
        {
            "inputs": [
                {
                    "internalType": "address",
                    "name": "",
                    "type": "address"
                }
            ],
            "name": "balances",
            "outputs": [
                {
                    "internalType": "uint256",
                    "name": "",
                    "type": "uint256"
                }
            ],
            "stateMutability": "view",
            "type": "function",
            "constant": true
        },
        {
            "inputs": [],
            "name": "decimals",
            "outputs": [
                {
                    "internalType": "uint256",
                    "name": "",
                    "type": "uint256"
                }
            ],
            "stateMutability": "view",
            "type": "function",
            "constant": true
        },
        {
            "inputs": [],
            "name": "deposit",
            "outputs": [
                {
                    "internalType": "address payable",
                    "name": "",
                    "type": "address"
                }
            ],
            "stateMutability": "view",
            "type": "function",
            "constant": true
        },
        {
            "inputs": [],
            "name": "founder",
            "outputs": [
                {
                    "internalType": "address",
                    "name": "",
                    "type": "address"
                }
            ],
            "stateMutability": "view",
            "type": "function",
            "constant": true
        },
        {
            "inputs": [],
            "name": "hardCap",
            "outputs": [
                {
                    "internalType": "uint256",
                    "name": "",
                    "type": "uint256"
                }
            ],
            "stateMutability": "view",
            "type": "function",
            "constant": true
        },
        {
            "inputs": [],
            "name": "icoState",
            "outputs": [
                {
                    "internalType": "enum TakTokenICO.State",
                    "name": "",
                    "type": "uint8"
                }
            ],
            "stateMutability": "view",
            "type": "function",
            "constant": true
        },
        {
            "inputs": [],
            "name": "maxInvestment",
            "outputs": [
                {
                    "internalType": "uint256",
                    "name": "",
                    "type": "uint256"
                }
            ],
            "stateMutability": "view",
            "type": "function",
            "constant": true
        },
        {
            "inputs": [],
            "name": "minInvestment",
            "outputs": [
                {
                    "internalType": "uint256",
                    "name": "",
                    "type": "uint256"
                }
            ],
            "stateMutability": "view",
            "type": "function",
            "constant": true
        },
        {
            "inputs": [],
            "name": "name",
            "outputs": [
                {
                    "internalType": "string",
                    "name": "",
                    "type": "string"
                }
            ],
            "stateMutability": "view",
            "type": "function",
            "constant": true
        },
        {
            "inputs": [],
            "name": "raisedAmount",
            "outputs": [
                {
                    "internalType": "uint256",
                    "name": "",
                    "type": "uint256"
                }
            ],
            "stateMutability": "view",
            "type": "function",
            "constant": true
        },
        {
            "inputs": [],
            "name": "saleEnd",
            "outputs": [
                {
                    "internalType": "uint256",
                    "name": "",
                    "type": "uint256"
                }
            ],
            "stateMutability": "view",
            "type": "function",
            "constant": true
        },
        {
            "inputs": [],
            "name": "saleStart",
            "outputs": [
                {
                    "internalType": "uint256",
                    "name": "",
                    "type": "uint256"
                }
            ],
            "stateMutability": "view",
            "type": "function",
            "constant": true
        },
        {
            "inputs": [],
            "name": "symbol",
            "outputs": [
                {
                    "internalType": "string",
                    "name": "",
                    "type": "string"
                }
            ],
            "stateMutability": "view",
            "type": "function",
            "constant": true
        },
        {
            "inputs": [],
            "name": "tokenTradeStart",
            "outputs": [
                {
                    "internalType": "uint256",
                    "name": "",
                    "type": "uint256"
                }
            ],
            "stateMutability": "view",
            "type": "function",
            "constant": true
        },
        {
            "inputs": [],
            "name": "totalSupply",
            "outputs": [
                {
                    "internalType": "uint256",
                    "name": "",
                    "type": "uint256"
                }
            ],
            "stateMutability": "view",
            "type": "function",
            "constant": true
        },
        {
            "stateMutability": "payable",
            "type": "receive",
            "payable": true
        },
        {
            "inputs": [],
            "name": "halt",
            "outputs": [],
            "stateMutability": "nonpayable",
            "type": "function"
        },
        {
            "inputs": [],
            "name": "resume",
            "outputs": [],
            "stateMutability": "nonpayable",
            "type": "function"
        },
        {
            "inputs": [
                {
                    "internalType": "address payable",
                    "name": "newDeposit",
                    "type": "address"
                }
            ],
            "name": "changeDepositAddress",
            "outputs": [],
            "stateMutability": "nonpayable",
            "type": "function"
        },
        {
            "inputs": [],
            "name": "getCurrentState",
            "outputs": [
                {
                    "internalType": "enum TakTokenICO.State",
                    "name": "",
                    "type": "uint8"
                }
            ],
            "stateMutability": "view",
            "type": "function",
            "constant": true
        },
        {
            "inputs": [],
            "name": "invest",
            "outputs": [
                {
                    "internalType": "bool",
                    "name": "",
                    "type": "bool"
                }
            ],
            "stateMutability": "payable",
            "type": "function",
            "payable": true
        },
        {
            "inputs": [],
            "name": "burn",
            "outputs": [
                {
                    "internalType": "bool",
                    "name": "",
                    "type": "bool"
                }
            ],
            "stateMutability": "nonpayable",
            "type": "function"
        },
        {
            "inputs": [
                {
                    "internalType": "address",
                    "name": "to",
                    "type": "address"
                },
                {
                    "internalType": "uint256",
                    "name": "tokens",
                    "type": "uint256"
                }
            ],
            "name": "transfer",
            "outputs": [
                {
                    "internalType": "bool",
                    "name": "success",
                    "type": "bool"
                }
            ],
            "stateMutability": "nonpayable",
            "type": "function"
        },
        {
            "inputs": [
                {
                    "internalType": "address",
                    "name": "from",
                    "type": "address"
                },
                {
                    "internalType": "address",
                    "name": "to",
                    "type": "address"
                },
                {
                    "internalType": "uint256",
                    "name": "tokens",
                    "type": "uint256"
                }
            ],
            "name": "transferFrom",
            "outputs": [
                {
                    "internalType": "bool",
                    "name": "success",
                    "type": "bool"
                }
            ],
            "stateMutability": "nonpayable",
            "type": "function"
        }
    ],
    "bytecode": "0x60806040526040518060400160405280600881526020017f54616b546f6b656e000000000000000000000000000000000000000000000000815250600090805190602001906200005192919062000292565b506040518060400160405280600281526020017f5454000000000000000000000000000000000000000000000000000000000000815250600190805190602001906200009f92919062000292565b50600060025566038d7ea4c68000600955681043561a8829300000600a5542600c5562093a804201600d5562093a80600d5401600e55674563918244f40000600f5567016345785d8a0000601055348015620000fa57600080fd5b50604051620019eb380380620019eb833981810160405260208110156200012057600080fd5b8101908080519060200190929190505050620f424060038190555033600460006101000a81548173ffffffffffffffffffffffffffffffffffffffff021916908373ffffffffffffffffffffffffffffffffffffffff16021790555060035460056000600460009054906101000a900473ffffffffffffffffffffffffffffffffffffffff1673ffffffffffffffffffffffffffffffffffffffff1673ffffffffffffffffffffffffffffffffffffffff1681526020019081526020016000208190555080600860006101000a81548173ffffffffffffffffffffffffffffffffffffffff021916908373ffffffffffffffffffffffffffffffffffffffff16021790555033600760006101000a81548173ffffffffffffffffffffffffffffffffffffffff021916908373ffffffffffffffffffffffffffffffffffffffff1602179055506000601160006101000a81548160ff021916908360038111156200028657fe5b02179055505062000341565b828054600181600116156101000203166002900490600052602060002090601f016020900481019282601f10620002d557805160ff191683800117855562000306565b8280016001018555821562000306579182015b8281111562000305578251825591602001919060010190620002e8565b5b50905062000315919062000319565b5090565b6200033e91905b808211156200033a57600081600090555060010162000320565b5090565b90565b61169a80620003516000396000f3fe60806040526004361061019f5760003560e01c80636d58c88f116100ec578063c59ee1dc1161008a578063dd62ed3e11610064578063dd62ed3e1461083d578063e8b5e51f146108c2578063f851a440146108e4578063fb86a4041461093b576101af565b8063c59ee1dc14610790578063cc9ba583146107bb578063d0e30db0146107e6576101af565b806395d89b41116100c657806395d89b4114610637578063a9059cbb146106c7578063ab0bcc411461073a578063c10b935814610765576101af565b80636d58c88f1461055657806370a08231146105a75780638ac2c6801461060c576101af565b806327e235e31161015957806344df8e701161013357806344df8e701461048057806344f38756146104af5780634d853ee5146104e85780635ed7ca5b1461053f576101af565b806327e235e3146103b7578063313ce5671461041c578063378aa70114610447576101af565b80622e1316146101b4578063046f7da2146101df57806306fdde03146101f6578063095ea7b31461028657806318160ddd146102f957806323b872dd14610324576101af565b366101af576101ac610966565b50005b600080fd5b3480156101c057600080fd5b506101c9610bb2565b6040518082815260200191505060405180910390f35b3480156101eb57600080fd5b506101f4610bb8565b005b34801561020257600080fd5b5061020b610c38565b6040518080602001828103825283818151815260200191508051906020019080838360005b8381101561024b578082015181840152602081019050610230565b50505050905090810190601f1680156102785780820380516001836020036101000a031916815260200191505b509250505060405180910390f35b34801561029257600080fd5b506102df600480360360408110156102a957600080fd5b81019080803573ffffffffffffffffffffffffffffffffffffffff16906020019092919080359060200190929190505050610cd6565b604051808215151515815260200191505060405180910390f35b34801561030557600080fd5b5061030e610e21565b6040518082815260200191505060405180910390f35b34801561033057600080fd5b5061039d6004803603606081101561034757600080fd5b81019080803573ffffffffffffffffffffffffffffffffffffffff169060200190929190803573ffffffffffffffffffffffffffffffffffffffff16906020019092919080359060200190929190505050610e27565b604051808215151515815260200191505060405180910390f35b3480156103c357600080fd5b50610406600480360360208110156103da57600080fd5b81019080803573ffffffffffffffffffffffffffffffffffffffff169060200190929190505050610e4e565b6040518082815260200191505060405180910390f35b34801561042857600080fd5b50610431610e66565b6040518082815260200191505060405180910390f35b34801561045357600080fd5b5061045c610e6c565b6040518082600381111561046c57fe5b60ff16815260200191505060405180910390f35b34801561048c57600080fd5b50610495610ee1565b604051808215151515815260200191505060405180910390f35b3480156104bb57600080fd5b506104c4610fad565b604051808260038111156104d457fe5b60ff16815260200191505060405180910390f35b3480156104f457600080fd5b506104fd610fc0565b604051808273ffffffffffffffffffffffffffffffffffffffff1673ffffffffffffffffffffffffffffffffffffffff16815260200191505060405180910390f35b34801561054b57600080fd5b50610554610fe6565b005b34801561056257600080fd5b506105a56004803603602081101561057957600080fd5b81019080803573ffffffffffffffffffffffffffffffffffffffff169060200190929190505050611066565b005b3480156105b357600080fd5b506105f6600480360360208110156105ca57600080fd5b81019080803573ffffffffffffffffffffffffffffffffffffffff169060200190929190505050611104565b6040518082815260200191505060405180910390f35b34801561061857600080fd5b5061062161114d565b6040518082815260200191505060405180910390f35b34801561064357600080fd5b5061064c611153565b6040518080602001828103825283818151815260200191508051906020019080838360005b8381101561068c578082015181840152602081019050610671565b50505050905090810190601f1680156106b95780820380516001836020036101000a031916815260200191505b509250505060405180910390f35b3480156106d357600080fd5b50610720600480360360408110156106ea57600080fd5b81019080803573ffffffffffffffffffffffffffffffffffffffff169060200190929190803590602001909291905050506111f1565b604051808215151515815260200191505060405180910390f35b34801561074657600080fd5b5061074f611216565b6040518082815260200191505060405180910390f35b34801561077157600080fd5b5061077a61121c565b6040518082815260200191505060405180910390f35b34801561079c57600080fd5b506107a5611222565b6040518082815260200191505060405180910390f35b3480156107c757600080fd5b506107d0611228565b6040518082815260200191505060405180910390f35b3480156107f257600080fd5b506107fb61122e565b604051808273ffffffffffffffffffffffffffffffffffffffff1673ffffffffffffffffffffffffffffffffffffffff16815260200191505060405180910390f35b34801561084957600080fd5b506108ac6004803603604081101561086057600080fd5b81019080803573ffffffffffffffffffffffffffffffffffffffff169060200190929190803573ffffffffffffffffffffffffffffffffffffffff169060200190929190505050611254565b6040518082815260200191505060405180910390f35b6108ca610966565b604051808215151515815260200191505060405180910390f35b3480156108f057600080fd5b506108f96112db565b604051808273ffffffffffffffffffffffffffffffffffffffff1673ffffffffffffffffffffffffffffffffffffffff16815260200191505060405180910390f35b34801561094757600080fd5b50610950611301565b6040518082815260200191505060405180910390f35b6000610970610e6c565b601160006101000a81548160ff0219169083600381111561098d57fe5b02179055506001600381111561099f57fe5b601160009054906101000a900460ff1660038111156109ba57fe5b146109c457600080fd5b60105434101580156109d85750600f543411155b6109e157600080fd5b34600b60008282540192505081905550600a54600b541115610a0257600080fd5b60006009543481610a0f57fe5b04905080600560003373ffffffffffffffffffffffffffffffffffffffff1673ffffffffffffffffffffffffffffffffffffffff168152602001908152602001600020600082825401925050819055508060056000600460009054906101000a900473ffffffffffffffffffffffffffffffffffffffff1673ffffffffffffffffffffffffffffffffffffffff1673ffffffffffffffffffffffffffffffffffffffff16815260200190815260200160002060008282540392505081905550600860009054906101000a900473ffffffffffffffffffffffffffffffffffffffff1673ffffffffffffffffffffffffffffffffffffffff166108fc349081150290604051600060405180830381858888f19350505050158015610b36573d6000803e3d6000fd5b507f4ae4bd7655e0d350876a23cd90c4227b13db560e34435c6a488150a9c844bf5f333483604051808473ffffffffffffffffffffffffffffffffffffffff1673ffffffffffffffffffffffffffffffffffffffff168152602001838152602001828152602001935050505060405180910390a1600191505090565b600f5481565b600760009054906101000a900473ffffffffffffffffffffffffffffffffffffffff1673ffffffffffffffffffffffffffffffffffffffff163373ffffffffffffffffffffffffffffffffffffffff1614610c1257600080fd5b6001601160006101000a81548160ff02191690836003811115610c3157fe5b0217905550565b60008054600181600116156101000203166002900480601f016020809104026020016040519081016040528092919081815260200182805460018160011615610100020316600290048015610cce5780601f10610ca357610100808354040283529160200191610cce565b820191906000526020600020905b815481529060010190602001808311610cb157829003601f168201915b505050505081565b600081600560003373ffffffffffffffffffffffffffffffffffffffff1673ffffffffffffffffffffffffffffffffffffffff168152602001908152602001600020541015610d2457600080fd5b60008211610d3157600080fd5b81600660003373ffffffffffffffffffffffffffffffffffffffff1673ffffffffffffffffffffffffffffffffffffffff16815260200190815260200160002060008573ffffffffffffffffffffffffffffffffffffffff1673ffffffffffffffffffffffffffffffffffffffff168152602001908152602001600020819055508273ffffffffffffffffffffffffffffffffffffffff163373ffffffffffffffffffffffffffffffffffffffff167f8c5be1e5ebec7d5bd14f71427d1e84f3dd0314c0f7b2291e5b200ac8c7c3b925846040518082815260200191505060405180910390a36001905092915050565b60035481565b6000600e544211610e3757600080fd5b610e42848484611307565b50600190509392505050565b60056020528060005260406000206000915090505481565b60025481565b6000600380811115610e7a57fe5b601160009054906101000a900460ff166003811115610e9557fe5b1415610ea45760039050610ede565b600c54421015610eb75760009050610ede565b600c544210158015610ecb5750600d544211155b15610ed95760019050610ede565b600290505b90565b6000610eeb610e6c565b601160006101000a81548160ff02191690836003811115610f0857fe5b021790555060026003811115610f1a57fe5b601160009054906101000a900460ff166003811115610f3557fe5b14610f3f57600080fd5b600060056000600460009054906101000a900473ffffffffffffffffffffffffffffffffffffffff1673ffffffffffffffffffffffffffffffffffffffff1673ffffffffffffffffffffffffffffffffffffffff168152602001908152602001600020819055506001905090565b601160009054906101000a900460ff1681565b600460009054906101000a900473ffffffffffffffffffffffffffffffffffffffff1681565b600760009054906101000a900473ffffffffffffffffffffffffffffffffffffffff1673ffffffffffffffffffffffffffffffffffffffff163373ffffffffffffffffffffffffffffffffffffffff161461104057600080fd5b6003601160006101000a81548160ff0219169083600381111561105f57fe5b0217905550565b600760009054906101000a900473ffffffffffffffffffffffffffffffffffffffff1673ffffffffffffffffffffffffffffffffffffffff163373ffffffffffffffffffffffffffffffffffffffff16146110c057600080fd5b80600860006101000a81548173ffffffffffffffffffffffffffffffffffffffff021916908373ffffffffffffffffffffffffffffffffffffffff16021790555050565b6000600560008373ffffffffffffffffffffffffffffffffffffffff1673ffffffffffffffffffffffffffffffffffffffff168152602001908152602001600020549050919050565b60105481565b60018054600181600116156101000203166002900480601f0160208091040260200160405190810160405280929190818152602001828054600181600116156101000203166002900480156111e95780601f106111be576101008083540402835291602001916111e9565b820191906000526020600020905b8154815290600101906020018083116111cc57829003601f168201915b505050505081565b6000600e54421161120157600080fd5b61120b838361150d565b506001905092915050565b600c5481565b600d5481565b600b5481565b600e5481565b600860009054906101000a900473ffffffffffffffffffffffffffffffffffffffff1681565b6000600660008473ffffffffffffffffffffffffffffffffffffffff1673ffffffffffffffffffffffffffffffffffffffff16815260200190815260200160002060008373ffffffffffffffffffffffffffffffffffffffff1673ffffffffffffffffffffffffffffffffffffffff16815260200190815260200160002054905092915050565b600760009054906101000a900473ffffffffffffffffffffffffffffffffffffffff1681565b600a5481565b600081600660008673ffffffffffffffffffffffffffffffffffffffff1673ffffffffffffffffffffffffffffffffffffffff16815260200190815260200160002060008573ffffffffffffffffffffffffffffffffffffffff1673ffffffffffffffffffffffffffffffffffffffff16815260200190815260200160002054101561139257600080fd5b81600560008673ffffffffffffffffffffffffffffffffffffffff1673ffffffffffffffffffffffffffffffffffffffff1681526020019081526020016000205410156113de57600080fd5b81600560008673ffffffffffffffffffffffffffffffffffffffff1673ffffffffffffffffffffffffffffffffffffffff1681526020019081526020016000206000828254039250508190555081600560008573ffffffffffffffffffffffffffffffffffffffff1673ffffffffffffffffffffffffffffffffffffffff1681526020019081526020016000206000828254019250508190555081600660008673ffffffffffffffffffffffffffffffffffffffff1673ffffffffffffffffffffffffffffffffffffffff16815260200190815260200160002060008573ffffffffffffffffffffffffffffffffffffffff1673ffffffffffffffffffffffffffffffffffffffff16815260200190815260200160002060008282540392505081905550600190509392505050565b600081600560003373ffffffffffffffffffffffffffffffffffffffff1673ffffffffffffffffffffffffffffffffffffffff16815260200190815260200160002054101561155b57600080fd5b81600560008573ffffffffffffffffffffffffffffffffffffffff1673ffffffffffffffffffffffffffffffffffffffff1681526020019081526020016000206000828254019250508190555081600560003373ffffffffffffffffffffffffffffffffffffffff1673ffffffffffffffffffffffffffffffffffffffff168152602001908152602001600020600082825403925050819055508273ffffffffffffffffffffffffffffffffffffffff163373ffffffffffffffffffffffffffffffffffffffff167fddf252ad1be2c89b69c2b068fc378daa952ba7f163c4a11628f55a4df523b3ef846040518082815260200191505060405180910390a3600190509291505056fea264697066735822122040ec94a4fe41cc0480d8edf9e99214ff426b70e306476f119ce765aa60caed2964736f6c63430006060033",
    "immutableReferences": {},
    "source": "pragma solidity >=0.5.0 <0.9.0;\r\n\r\nimport \"./TakToken.sol\";\r\n\r\ncontract TakTokenICO is TakToken {\r\n    address public admin;\r\n    address payable public deposit;\r\n    uint256 tokenPrice = 0.001 ether; // 1 ETH = 1000 CRTP, 1 CRPT = 0.001\r\n    uint256 public hardCap = 300 ether;\r\n    uint256 public raisedAmount; // this value will be in wei\r\n    uint256 public saleStart = block.timestamp;\r\n    uint256 public saleEnd = block.timestamp + 604800; //one week\r\n\r\n    uint256 public tokenTradeStart = saleEnd + 604800; //transferable in a week after saleEnd\r\n    uint256 public maxInvestment = 5 ether;\r\n    uint256 public minInvestment = 0.1 ether;\r\n\r\n    enum State {beforeStart, running, afterEnd, halted} // ICO states\r\n    State public icoState;\r\n\r\n    constructor(address payable _deposit) public {\r\n        deposit = _deposit;\r\n        admin = msg.sender;\r\n        icoState = State.beforeStart;\r\n    }\r\n\r\n    modifier onlyAdmin() {\r\n        require(msg.sender == admin);\r\n        _;\r\n    }\r\n\r\n    // emergency stop\r\n    function halt() public onlyAdmin {\r\n        icoState = State.halted;\r\n    }\r\n\r\n    function resume() public onlyAdmin {\r\n        icoState = State.running;\r\n    }\r\n\r\n    function changeDepositAddress(address payable newDeposit) public onlyAdmin {\r\n        deposit = newDeposit;\r\n    }\r\n\r\n    function getCurrentState() public view returns (State) {\r\n        if (icoState == State.halted) {\r\n            return State.halted;\r\n        } else if (block.timestamp < saleStart) {\r\n            return State.beforeStart;\r\n        } else if (block.timestamp >= saleStart && block.timestamp <= saleEnd) {\r\n            return State.running;\r\n        } else {\r\n            return State.afterEnd;\r\n        }\r\n    }\r\n\r\n    event Invest(address investor, uint256 value, uint256 tokens);\r\n\r\n    // function called when sending eth to the contract\r\n    function invest() public payable returns (bool) {\r\n        icoState = getCurrentState();\r\n        require(icoState == State.running);\r\n        require(msg.value >= minInvestment && msg.value <= maxInvestment);\r\n\r\n        raisedAmount += msg.value;\r\n        require(raisedAmount <= hardCap);\r\n\r\n        uint256 tokens = msg.value / tokenPrice;\r\n\r\n        // adding tokens to the inverstor's balance from the founder's balance\r\n        balances[msg.sender] += tokens;\r\n        balances[founder] -= tokens;\r\n        deposit.transfer(msg.value); // transfering the value sent to the ICO to the deposit address\r\n\r\n        emit Invest(msg.sender, msg.value, tokens);\r\n\r\n        return true;\r\n    }\r\n\r\n    // this function is called automatically when someone sends ETH to the contract's address\r\n    receive() external payable {\r\n        invest();\r\n    }\r\n\r\n    // burning unsold tokens\r\n    function burn() public returns (bool) {\r\n        icoState = getCurrentState();\r\n        require(icoState == State.afterEnd);\r\n        balances[founder] = 0;\r\n        return true;\r\n    }\r\n\r\n    function transfer(address to, uint256 tokens)\r\n        public\r\n        override\r\n        returns (bool success)\r\n    {\r\n        require(block.timestamp > tokenTradeStart); // the token will be transferable only after tokenTradeStart\r\n\r\n        // calling the transfer function of the base contract\r\n        super.transfer(to, tokens); // same as Cryptos.transfer(to, tokens);\r\n        return true;\r\n    }\r\n\r\n    function transferFrom(\r\n        address from,\r\n        address to,\r\n        uint256 tokens\r\n    ) public override returns (bool success) {\r\n        require(block.timestamp > tokenTradeStart); // the token will be transferable only after tokenTradeStart\r\n\r\n        TakToken.transferFrom(from, to, tokens); // same as super.transferFrom(to, tokens);\r\n        return true;\r\n    }\r\n}\r\n",
    "sourcePath": "C:/Users/calee/taktoken/contracts/TakTokenICO.sol",
    "compiler": {
        "name": "solc",
        "version": "0.6.6+commit.6c089d02.Emscripten.clang"
    },
    "schemaVersion": "3.4.1",
    "updatedAt": "2021-06-12T11:34:02.350Z",
    "networkType": "ethereum",
    "devdoc": {
        "methods": {}
    },
    "userdoc": {
        "methods": {}
    }
}